:020000040800F2
:1000000000000220412A00084D260008552600085D
:100010005D260008652600086D2600080000000027
:10002000000000000000000000000000752600082D
:100030008326000800000000912600089F26000883
:10004000912A0008912A0008912A0008912A0008A4
:10005000912A0008912A0008912A0008912A000894
:10006000912A0008912A0008912A0008912A000884
:10007000912A0008912A0008912A0008912A000874
:10008000912A0008912A0008912A0008912A000864
:10009000912A0008912A0008912A0008912A000854
:1000A000912A0008912A0008912A0008912A000844
:1000B000AD260008912A0008C1260008912A0008F0
:1000C000912A0008912A0008912A0008912A000824
:1000D000912A0008912A0008912A0008912A000814
:1000E000912A0008912A0008912A0008912A000804
:1000F000912A0008912A0008912A0008912A0008F4
:10010000912A0008912A0008912A0008912A0008E3
:10011000912A0008912A0008912A0008912A0008D3
:10012000912A0008912A0008912A0008912A0008C3
:10013000912A0008912A0008912A0008912A0008B3
:10014000912A0008912A0008912A0008912A0008A3
:10015000912A0008912A0008912A0008912A000893
:10016000912A0008912A0008912A0008912A000883
:10017000912A0008912A0008912A00080000000036
:08018000912A0008912A0008F1
:1001900010B5054C237833B9044B13B10448AFF3C1
:1001A00000800123237010BD7C00002000000000AF
:1001B0008860000808B5034B1BB103490348AFF33F
:1001C000008008BD0000000080000020886000085A
:1001D00001F0FF01102A2BDB10F0070F08D010F8F8
:1001E000013B013A8B422DD010F0070F42B3F6D1FC
:1001F000F0B441EA012141EA014122F007047FF015
:1002000000070023F0E80256083C85EA010586EA6B
:10021000010685FA47F5A3FA87F586FA47F6A5FAA7
:1002200087F68EB9EED1F0BC01F0FF0102F00702B3
:1002300032B110F8013B013A83EA010313B1F8D15E
:100240000020704701387047002D06BF354603383F
:10025000073815F0010F07D1013015F4807F02BF78
:10026000013015F4C03F0130F0BC0138704700BFC9
:1002700053B94AB9002908BF00281CBF4FF0FF310D
:100280004FF0FF3000F06AB9ADF1080C6DE904CE13
:1002900000F006F8DDF804E0DDE9022304B0704761
:1002A0002DE9F047089D0C46002B4ED194468C4515
:1002B0008646B2FA82F262D94AB1C2F12003914075
:1002C00020FA03F30CFA02FC194300FA02FE4FEA8B
:1002D0001C471FFA8CF6B1FBF7F44FEA1E4307FBED
:1002E000141143EA014304FB06F199420AD91CEBBD
:1002F000030304F1FF3080F01281994240F20F8134
:10030000023C6344591A1FFA8EF3B1FBF7F007FB66
:10031000101143EA014300FB06F69E420AD91CEB8A
:10032000030300F1FF3180F0FC809E4240F2F9802F
:10033000634402389B1B40EA044000211DB1D340B6
:100340000022C5E90032BDE8F0878B4205D90DB126
:10035000C5E9000100210846F5E7B3FA83F1002959
:1003600046D1A34202D39042C0F0F080861A64EBDB
:1003700003030120002DE6D0C5E90063E3E7002A6E
:1003800040F09080A1EB0C044FEA1C481FFA8CF758
:100390000121B4FBF8F64FEA1E4308FB164443EA7A
:1003A000044307FB06F0984208D91CEB030306F14F
:1003B000FF3402D2984200F2CD8026461C1A1FFA62
:1003C0008EF3B4FBF8F008FB104443EA044300FB4F
:1003D00007F79F4208D91CEB030300F1FF3402D258
:1003E0009F4200F2B0802046DB1B40EA0640A5E7B2
:1003F000C1F120068B4022FA06F71F4320FA06FCC3
:1004000004FA01F343EA0C03F44000FA01F8380C53
:100410004FEA1349B4FBF0FE1FFA87FC00FB1E44B1
:1004200049EA04440EFB0CF9A14502FA01F20AD98B
:100430003C190EF1FF3A80F08480A14540F28180A2
:10044000AEF1020E3C44A4EB09041FFA83F9B4FB9D
:10045000F0F300FB134449EA044403FB0CFCA445FD
:1004600007D93C1903F1FF3067D2A44565D9023B97
:100470003C4443EA0E40A0FB0293A4EB0C049C42D4
:10048000CE469C4651D34ED055B1B8EB0E0364EB2B
:100490000C0404FA06F6CB401E43CC40C5E90064C8
:1004A000002150E7C2F1200320FA03F10CFA02FC0C
:1004B00024FA03F394400C434FEA1C4800FA02FE6E
:1004C0001FFA8CF7B3FBF8F008FB1031230C43EA5A
:1004D000014300FB07F1994208D91CEB030300F12B
:1004E000FF362CD299422AD9023863445B1AA4B24F
:1004F000B3FBF8F108FB113344EA034401FB07F3B3
:10050000A34208D91CEB040401F1FF3613D2A34225
:1005100011D902396444E41A41EA004139E704463A
:10052000F0E6084606E7C845AED2B9EB020E63EB2B
:10053000070C0138A8E73146EDE7034699E7304656
:10054000D4E7D6467FE7634402384DE706462346A4
:1005500008460FE7023E634430E700BF704700BF24
:1005600080B500AF01220821024802F0D7FD00BF8C
:1005700080BD00BF000C024080B584B000AF0022F7
:1005800008212F4802F0CAFD012208212C4802F060
:10059000C5FD0A2302222B492B4803F01CFC002333
:1005A000FB604FF400437B8100237B603FE07B686E
:1005B000002B06DB7B68032B03DC7B680433FB60CA
:1005C00018E07B68032B07DD7B68072B04DC7B6866
:1005D000C3F10703FB600DE07B68072B06DD7B683A
:1005E0000B2B03DC7B680433FB6003E07B68C3F107
:1005F0001703FB60134B1A887B8913409BB2002BB7
:1006000005D0124AFB68002122F8131009E00F4AB6
:10061000FB6832F81330013399B20C4AFB6822F8B8
:1006200013107B895B087B817B6801337B607B686F
:100630000F2BBCDD00BF00BF1037BD4680BD00BF23
:10064000000C0240B80000201C020020980000208E
:1006500080B58EB000AF07F11C0300221A605A600B
:100660009A60DA601A615A619A613B4600221A6008
:100670005A609A60DA601A615A619A612F4B4FF0A2
:1006800020421A602D4B2E4A5A602C4B00229A6051
:100690002A4B0022DA60294B00221A61274B1022D4
:1006A0005A61264B00229A61244B0022DA61234BC7
:1006B00000221A62214B00225A62204B4FF48052D2
:1006C0009A621E4B0022DA621C4B4FF480421A637E
:1006D0001A4B00225A63194B00229A63174B0022CF
:1006E0005A640F23FB610F233B623C237B62002390
:1006F000BB621023FB6211233B6300237B6308234F
:100700003B600F237B600923BB600023FB60102349
:100710003B6111237B610023BB613A4607F11C0357
:100720001946064803F03AFF0346002B01D001F0BA
:10073000D5F800BF3837BD4680BD00BFBC000020E3
:10074000040100A080B586B000AF3B1D00221A60F6
:100750005A609A60DA601A611C4B1B68002B31D119
:100760001A4B01221A6000233B60194B9B6B184AFD
:1007700043F001039363164B9B6B03F001033B6053
:100780003B684FF688737B600223BB600023FB60ED
:1007900003233B610C237B613B1D19460D4802F08E
:1007A00021FB4CF2B3737B600223BB600023FB6030
:1007B00003233B610C237B613B1D1946064802F075
:1007C00011FB00E000BF1837BD4680BD0C010020C2
:1007D0000038024000100240000C024080B582B098
:1007E00000AF7860FFF7AEFF00BF0837BD4680BDA1
:1007F00080B58CB000AF07F11C0300221A605A606C
:100800009A60DA601A610023BB616F4B1B6B6E4A02
:1008100043F0100313636C4B1B6B03F01003BB61BD
:10082000BB6900237B61684B1B6B674A43F0040381
:100830001363654B1B6B03F004037B617B6900232F
:100840003B61614B1B6B604A43F0800313635E4B5B
:100850001B6B03F080033B613B690023FB605A4B39
:100860001B6B594A43F001031363574B1B6B03F097
:100870000103FB60FB680023BB60534B1B6B524AB8
:1008800043F008031363504B1B6B03F00803BB607A
:10089000BB6800237B604C4B1B6B4B4A43F040030F
:1008A0001363494B1B6B03F040037B607B680023A1
:1008B0003B60454B1B6B444A43F002031363424BBE
:1008C0001B6B03F002033B603B68002270213F4832
:1008D00002F024FC00224FF400513D4802F01EFCBF
:1008E000002240213B4802F019FC00224FF48071A5
:1008F000394802F013FC00220821384802F00EFCAF
:100900007023FB6101233B6200237B620023BB62F7
:1009100007F11C0319462D4802F064FA4FF4005306
:10092000FB6101233B6200237B620023BB6207F172
:100930001C031946264802F055FAC023FB61002328
:100940003B6200237B6207F11C031946224802F038
:1009500049FA3023FB6100233B6200237B6207F1ED
:100960001C0319461A4802F03DFA4023FB6101239B
:100970003B6200237B620023BB6207F11C03194624
:10098000144802F02FFA4FF48073FB6101233B629D
:1009900000237B620023BB6207F11C0319460E484B
:1009A00002F020FA0823FB6101233B6200237B62F3
:1009B0000023BB6207F11C031946084802F012FA33
:1009C00000BF3037BD4680BD0038024000100240F5
:1009D000000802400018024000000240000C0240E3
:1009E00080B483B000AF0346FB80044AFB881380C9
:1009F00000BF0C37BD465DF8047B7047FEFF0F60FB
:100A000080B483B000AF0346FB80044AFB88538068
:100A100000BF0C37BD465DF8047B7047FEFF0F60DA
:100A200080B483B000AF064B5B889BB2FB80FB8831
:100A30009BB218460C37BD465DF8047B704700BF7B
:100A4000FEFF0F6090B583B000AF04460846114624
:100A50001A462346FB800346BB800B467B80134629
:100A60003B802A20FFF7BCFFFB881B0A9BB218467D
:100A7000FFF7C6FFFB88DBB29BB21846FFF7C0FF4B
:100A80007B881B0A9BB21846FFF7BAFF7B88DBB254
:100A90009BB21846FFF7B4FF2B20FFF7A1FFBB88DE
:100AA0001B0A9BB21846FFF7ABFFBB88DBB29BB2B9
:100AB0001846FFF7A5FF3B881B0A9BB21846FFF7B5
:100AC0009FFF3B88DBB29BB21846FFF799FF2C20B3
:100AD000FFF786FF00BF0C37BD4690BD80B584B0E0
:100AE00000AF0346FB80154B1B88013B9AB2134BAA
:100AF0005B88013B9BB200210020FFF7A3FF00238E
:100B0000FB8111E00023BB8106E0FB881846FFF75C
:100B100077FFBB890133BB81084B5B88BA899A4256
:100B2000F3D3FB890133FB81044B1B88FA899A427A
:100B3000E8D300BF00BF1037BD4680BD10010020C4
:100B400090B585B000AF0446084611461A462346C4
:100B5000FB800346BB800B467B8013463B807B8833
:100B6000013B9AB23B88013B9BB2B988F888FFF7FA
:100B700069FFBB88FB8110E0FB88BB8106E03B8CF2
:100B80001846FFF73DFFBB890133BB81BA897B88DB
:100B90009A42F4D3FB890133FB81FA893B889A425C
:100BA000EAD300BF00BF1437BD4690BD80B582B008
:100BB00000AF0346FB800B46BB8013467B80BB889F
:100BC000FA88B988F888FFF73DFF7B881846FFF759
:100BD00017FF00BF0837BD4680BD90B58DB000AF90
:100BE0000446084611461A462346FB800346BB804E
:100BF0000B467B8013463B800023BB6200237B6255
:100C00007A88FB88D31A3B623A88BB88D31AFB6187
:100C1000FB88FB60BB88BB603B6A002B02DD0123C5
:100C20007B610BE03B6A002B02D100237B6105E076
:100C30004FF0FF337B613B6A5B423B62FB69002BF9
:100C400002DD01233B610BE0FB69002B02D1002395
:100C50003B6105E04FF0FF333B61FB695B42FB61A9
:100C60003A6AFB699A4202DD3B6ABB6101E0FB69BB
:100C7000BB610023FB852BE0FB689BB2BA6891B295
:100C8000B7F840201846FFF791FFBA6A3B6A134451
:100C9000BB627A6AFB6913447B62BA6ABB699A4297
:100CA00007DDBA6ABB69D31ABB62FA687B69134471
:100CB000FB607A6ABB699A4207DD7A6ABB69D31A1C
:100CC0007B62BA683B691344BB60FB8D0133FB85D3
:100CD000FB8DBA699A42CFDA00BF00BF3437BD46F8
:100CE00090BD90B585B002AF0446084611461A463D
:100CF0002346FB800346BB800B467B8013463B802C
:100D0000BC887A88B988F8883B8B00932346FFF724
:100D100064FF3C88FA88B988F8883B8B00932346A7
:100D2000FFF75BFF3C887A883988F8883B8B009313
:100D30002346FFF752FF3C887A88B98878883B8B36
:100D400000932346FFF749FF00BF0C37BD4690BD17
:100D500090B587B000AF0446084611461A462346B0
:100D6000FB800346BB800B46FB7013463B80002391
:100D70007B75FB883B8297F82C305B08FB73FB7B11
:100D8000DB08DBB21A46FB7B03F00703DBB2002B68
:100D900014BF01230023DBB213449AB297F82C301E
:100DA0009BB212FB03F3BB81FB78203BFB70FB7B08
:100DB0009AB2FB8813449BB2013B9CB297F82C304B
:100DC0009AB2BB8813449BB2013B9BB2B988F888A6
:100DD0002246FFF737FE00237B827AE097F82C301B
:100DE0000C2B28D097F82C30102B08D1FA787B8A5E
:100DF0003C4912010A4413441B78FB751BE097F829
:100E00002C30182B0BD1FA78798A374813465B00BF
:100E100013441B0103440B441B78FB750BE097F84C
:100E20002C30202B5AD1FA787B8A304992010A441F
:100E300013441B78FB750023BB7544E097F83030F2
:100E4000002B20D1FA7DBB7D42FA03F303F00103AE
:100E5000002B04D03B881846FFF7D2FD03E03B8D02
:100E60001846FFF7CDFD7B7D01337B757B7DFA7BDB
:100E7000B3FBF2F101FB02F29B1ADBB2002B1FD194
:100E800000237B7522E0FA7DBB7D42FA03F303F079
:100E90000103002B05D03A88B988FB881846FFF774
:100EA00085FEFB880133FB80FA883B8AD21AFB7BE4
:100EB0009A4205D13B8AFB80BB880133BB8005E0A9
:100EC000BB7D0133BB75BB7D072BB7D97B8A013353
:100ED0007B827A8ABB899A4280D300E000BF1C37AC
:100EE000BD4690BDC4600008B46600088478000860
:100EF00080B485B000AF03460A46FB711346BB7150
:100F00000123FB6004E0FA79FB6802FB03F3FB605A
:100F1000BB795A1EBA71002BF5D1FB6818461437FD
:100F2000BD465DF8047B704790B589B004AF0446B8
:100F3000084611461A462346FB800346BB800B46F3
:100F40007B8013467B700023BB7397F828305B08C7
:100F50007B730023FB7359E07C887A78FB7BD31A80
:100F6000DBB2013BDBB219460A20FFF7C1FF0346A3
:100F7000B4FBF3F12A4BA3FB0123DA0813469B00D1
:100F800013445B00CA1A13463B73BB7B002B21D171
:100F9000FA7B7B78013B9A421CDA3B7B002B17D112
:100FA000FB7B9AB27B7B9BB212FB03F39AB2FB886A
:100FB000134498B23A8CB9880023029397F82830EA
:100FC0000193BB8C009313462022FFF7C1FE1AE069
:100FD0000123BB73FB7B9AB27B7B9BB212FB03F3B7
:100FE0009AB2FB88134498B23B7B3033DAB23C8C24
:100FF000B9880023029397F828300193BB8C0093A3
:101000002346FFF7A5FEFB7B0133FB73FA7B7B785E
:101010009A42A1D300BF00BF1437BD4690BD00BFA8
:10102000CDCCCCCC80B483B000AF0346FB71FB7950
:101030001B09DBB203F00303DBB2002B07D00A4B22
:101040004FF4A0721A80084BF0225A8006E0064B3B
:10105000F0221A80044B4FF4A0725A8000BF0C3764
:10106000BD465DF8047B70471001002080B500AFDD
:1010700000224FF40051AA4802F050F84FF4FA70E1
:1010800001F07AFD01224FF40051A54802F046F824
:101090004FF4FA7001F070FD0020FFF7C3FFD3207A
:1010A000FFF79EFCFFF7BCFC03461A469D4B9A8057
:1010B000FFF7B6FC03461A469A4B9A80FFF7B0FC3E
:1010C00003461A46974B9A80964B9B881B029AB20E
:1010D000944B9A80FFF7A4FC03461A46914B9B88D9
:1010E00013439AB28F4B9A80CF20FFF779FC0020F0
:1010F000FFF786FCC120FFF783FC3020FFF780FC60
:10110000ED20FFF76DFC6420FFF77AFC0320FFF76A
:1011100077FC1220FFF774FC8120FFF771FCE820B8
:10112000FFF75EFC8520FFF76BFC1020FFF768FCE3
:101130007A20FFF765FCCB20FFF752FC3920FFF740
:101140005FFC2C20FFF75CFC0020FFF759FC3420EB
:10115000FFF756FC0220FFF753FCF720FFF740FC97
:101160002020FFF74DFCEA20FFF73AFC0020FFF7B4
:1011700047FC0020FFF744FCC020FFF731FC1B2098
:10118000FFF73EFCC120FFF72BFC0120FFF738FCE6
:10119000C520FFF725FC3020FFF732FC3020FFF799
:1011A0002FFCC720FFF71CFCB720FFF729FC3620D7
:1011B000FFF716FC0820FFF723FC3A20FFF710FC8E
:1011C0005520FFF71DFCB120FFF70AFC0020FFF7B8
:1011D00017FC1A20FFF714FCB620FFF701FC0A20C9
:1011E000FFF70EFCA220FFF70BFCF220FFF7F8FB45
:1011F0000020FFF705FC2620FFF7F2FB0120FFF798
:10120000FFFBE020FFF7ECFB0F20FFF7F9FB2A20A4
:10121000FFF7F6FB2820FFF7F3FB0820FFF7F0FBB2
:101220000E20FFF7EDFB0820FFF7EAFB5420FFF745
:10123000E7FBA920FFF7E4FB4320FFF7E1FB0A20CF
:10124000FFF7DEFB0F20FFF7DBFB0020FFF7D8FBEB
:101250000020FFF7D5FB0020FFF7D2FB0020FFF7AF
:10126000CFFBE120FFF7BCFB0020FFF7C9FB1520F7
:10127000FFF7C6FB1720FFF7C3FB0720FFF7C0FBF4
:101280001120FFF7BDFB0620FFF7BAFB2B20FFF76D
:10129000B7FB5620FFF7B4FB3C20FFF7B1FB05205E
:1012A000FFF7AEFB1020FFF7ABFB0F20FFF7A8FB0B
:1012B0003F20FFF7A5FB3F20FFF7A2FB0F20FFF722
:1012C0009FFB2B20FFF78CFB0020FFF799FB0020F2
:1012D000FFF796FB0120FFF793FB3F20FFF790FB02
:1012E0002A20FFF77DFB0020FFF78AFB0020FFF795
:1012F00087FB0020FFF784FBEF20FFF781FB112025
:10130000FFF76EFB782001F037FC2920FFF768FB20
:1013100001224FF48071044801F000FF00BF80BD3E
:1013200000080240100100200000024080B584B097
:1013300000AFF860B9607A603B60FB689AB27B6886
:101340009BB2134498B2BB689AB23B689BB21344F9
:101350009BB23A8B1946FFF729FCFB689AB27B686F
:101360009BB2D31A98B2BB689AB23B689BB2134443
:101370009BB23A8B1946FFF719FCFB689AB27B685F
:101380009BB2134498B2BB689AB23B689BB2D31A23
:101390009BB23A8B1946FFF709FCFB689AB27B684F
:1013A0009BB2D31A98B2BB689AB23B689BB2D31A6D
:1013B0009BB23A8B1946FFF7F9FBFB689AB23B6880
:1013C0009BB2134498B2BB689AB27B689BB2134439
:1013D0009BB23A8B1946FFF7E9FBFB689AB23B6870
:1013E0009BB2D31A98B2BB689AB27B689BB2134483
:1013F0009BB23A8B1946FFF7D9FBFB689AB23B6860
:101400009BB2134498B2BB689AB27B689BB2D31A62
:101410009BB23A8B1946FFF7C9FBFB689AB23B684F
:101420009BB2D31A98B2BB689AB27B689BB2D31AAC
:101430009BB23A8B1946FFF7B9FB00BF1037BD4688
:1014400080BD80B58AB002AFF860B9603B601346DA
:10145000FB800023FB613B68BB613B685B00C3F121
:1014600003033B61BB6A002B4FD029E0FB697B6122
:101470000AE0FB8800937B69FA69B968F868FFF7AE
:1014800055FF7B6901337B617A69BB699A42F0DD64
:101490003B69002B06DAFB699A003B69134406336B
:1014A0003B610AE0FA69BB69D31A9A003B691344AD
:1014B0000A333B61BB69013BBB61FB690133FB61E3
:1014C000FA69BB699A42D1DD23E0FB880093BB69CE
:1014D000FA69B968F868FFF729FF3B69002B06DA5B
:1014E000FB699A003B69134406333B610AE0FA69E1
:1014F000BB69D31A9A003B6913440A333B61BB6949
:10150000013BBB61FB690133FB61FA69BB699A422C
:10151000DBDD00BF2037BD4680BD000090B58BB03D
:1015200004AFBA601A460346FB810B46BB811346E3
:10153000FB80FB89BB820023FB7548E0FB7D002B11
:1015400045D1FA89264B1B88194697F82C305B0841
:10155000DBB2CB1A9A423FDCBA89214B5B88194631
:1015600097F82C30CB1A9A4236DCBB681B78802B5C
:1015700002D90123FB752AE0BB681B780D2B0BD128
:1015800097F82C309AB2BB891344BB81BB8AFB818C
:10159000BB680133BB6017E0BB681A78FC88B98967
:1015A000F88997F83030029397F82C3001933B8DEF
:1015B00000932346FFF7CCFB97F82C305B08DBB297
:1015C0001A46FB891344FB81BB680133BB60BB68CF
:1015D0001B78002BB2D100E000BF1C37BD4690BD88
:1015E0001001002080B500AF01224021024801F027
:1015F00095FD00BF80BD00BF0018024080B500AF60
:101600003F4B1B88DBB29AB23D4B1A803D4B1B8887
:101610001A463D4B9B5C1B021AB2394B1B881BB20E
:1016200013431BB29AB2364B1A80364B1B88032BDE
:1016300046D801A252F823F04916000867160008A0
:1016400085160008A31600082D4B1B8843F0B00335
:101650009AB22B4B1A802A4B1B8823F040039AB274
:10166000274B1A802DE0264B1B8843F0D0039AB2FB
:10167000234B1A80224B1B8823F020039AB2204B65
:101680001A801EE01E4B1B8843F0E0039AB21C4BED
:101690001A801B4B1B8823F010039AB2184B1A8038
:1016A0000FE0174B1B8843F070039AB2144B1A805B
:1016B000134B1B8823F080039AB2114B1A8000E071
:1016C00000BF104B1B8801335A4203F0030302F0A2
:1016D000030258BF53429AB20A4B1A80002240219B
:1016E0000A4801F01BFD012302220549084802F0C7
:1016F00036FA01224021054801F010FD00BF80BDEF
:101700000E000020160100200000002000180240FA
:101710001C02002080B485B000AFF860B9601346A9
:10172000FB71FB68002B0EDBFB68092B0BDC094A05
:10173000FB6813441A78FB79D31AD9B2064ABB68FE
:1017400013440A461A7000BF1437BD465DF8047B87
:10175000704700BF040000200000002080B483B068
:1017600000AF0346FB71FB79012B07D10A4B1B88A5
:1017700023F008039AB2084B1A8006E0064B1B8838
:1017800043F008039AB2044B1A8000BF0C37BD46E1
:101790005DF8047B704700BF0E00002080B500AFED
:1017A00001F078F900F020F8FFF722F801F06AF86C
:1017B00000F0A6FEFEF74CFF01F0B0F800F07EF856
:1017C000322000F019FE012000F032FE054B1B789C
:1017D000002BFBD0034B00221A70FEF7CDFE00F069
:1017E000A5F9F3E70E02002080B594B000AF07F131
:1017F000200330220021184603F066FD07F10C0398
:1018000000221A605A609A60DA601A610023BB6095
:10181000284B1B6C274A43F080531364254B1B6CE9
:1018200003F08053BB60BB6800237B60224B1B68C6
:10183000214A43F4804313601F4B1B6803F4804329
:101840007B607B6802233B620123FB6210233B63C6
:101850000223BB630023FB6308233B64A8237B6450
:101860000223BB640423FB6407F12003184601F044
:1018700089FC0346002B01D000F030F80F23FB60F9
:1018800002233B6100237B614FF4A053BB614FF403
:10189000A053FB6107F10C030521184601F0EAFE95
:1018A0000346002B01D000F019F800BF5037BD46A9
:1018B00080BD00BF003802400070004080B500AF1E
:1018C000FEF74EFEFFF78EFEFFF7D0FB00F080FD27
:1018D00000F088FD00F008F800BF80BD80B400AFC4
:1018E00072B600BF00BFFDE780B588B004AF4FF609
:1018F000FF70FFF7F3F800230093F023F02200219C
:101900000020FFF7EEF900230293102301934FF616
:10191000FF7300930023804AFA211420FFF7FEFD95
:1019200000230293102301934FF6FF7300930023CB
:101930007A4A4FF487711420FFF7F0FD10230293C9
:101940004FF6FF7301934FF4784300930123002275
:101950004FF487715020FFF7E7FA0020FFF7FEFEF3
:10196000002200210020FFF7D5FE002201210020E7
:10197000FFF7D0FE002202210020FFF7CBFE00225D
:1019800003210020FFF7C6FE0023FB601EE00023BA
:10199000BB6015E06249FA6813461B019B1ACA181E
:1019A000BB68134401221A70FB68DBB2BA68D1B27B
:1019B0004BF64042184600F055FCBB680133BB6053
:1019C000BB680E2BE6DDFB680133FB60FB680E2B6A
:1019D000DDDD00237B6052E000233B6049E07B6853
:1019E000052B02D07B68092B1ED13B68032B1BDD26
:1019F0003B680B2B18DC3B68072B15D03B68082B8A
:101A000012D047497A6813461B019B1ACA183B68D3
:101A1000134402221A707B68DBB23A68D1B240F2FA
:101A2000CF12184600F039FC7B68062B05D07B6886
:101A3000072B02D07B68082B18D13B68042B02D0FF
:101A40003B680B2B12D136497A6813461B019B1A4F
:101A5000CA183B68134402221A707B68DBB23A68EA
:101A6000D1B240F2CF12184600F017FC3B680133A8
:101A70003B603B680E2BB2DD7B6801337B607B688B
:101A80000E2BA9DD274B07221A70264B07225A700E
:101A9000244B1A78234B9A70224B5A78214BDA70D8
:101AA000204B00221A711F4B00229A601D4B1B789D
:101AB00019461C4B5B781846194A0B461B015B1AEA
:101AC0001344034400221A70164B1B78154A5178B0
:101AD0004FF6E072184600F004FC134B01221A7016
:101AE000114B01225A70104B1A780F4B9A700E4B03
:101AF0005A780D4BDA700C4B00221A710A4B1B7886
:101B0000094A51784FF47842184600F005FC00BFAE
:101B10001037BD4680BD00BFA0600008BC60000853
:101B20002C010020180100202401002080B500AF06
:101B3000554B1B785A1C554B83FB0213D910D317F6
:101B4000C91A0B469B000B449B00D11ACAB24E4BDC
:101B50001A7000F0E1F94E4BDB8B5A1C4D4B83FBA6
:101B6000021313445911D317C91A0B461B015B1AF0
:101B70009B00D11A002902D1FFF7B6FE82E0464B46
:101B80009968464B1A6813461B019B1A5B00444A2E
:101B900082FB03025211DB17D31A994212DA3A4B35
:101BA0001B78002B57D120213E4801F0D0FA0022AB
:101BB00010213C4801F0B2FA00224021394801F0DE
:101BC000ADFA48E0344B9968344B1A6813469B00D1
:101BD00013441A01D31A324A82FB03025211DB1753
:101BE000D31A99421BDB284B1A782F4BA3FB021305
:101BF00099080B469B000B44D31ADBB2002B2AD169
:101C00001021284801F0A3FA00222021254801F0E4
:101C100085FA00224021234801F080FA1BE01A4B8C
:101C20001A78214BA3FB0213D9080B469B000B44E7
:101C30005B00D31ADBB2002B0DD14021194801F013
:101C400086FA00221021174801F068FA00222021AC
:101C5000144801F063FA0C4B1A78134BA3FB0213E0
:101C600099080B469B000B44D31ADBB2002B09D119
:101C700000F07CF900F01EFA00F050FA00F0C2F813
:101C800000F014F880BD00BF0D0200206766666694
:101C90009800002089888888180100201000002002
:101CA0001F85EB5100100240CDCCCCCC80B500AFED
:101CB0002A4B1A78294B9B789A4205D1274B5A78A0
:101CC000264BDB789A4211D0244B9B78234AD1785B
:101CD0004FF6FF72184600F004FB204B1B781F4A9A
:101CE00051784FF6E072184600F0FBFA1C4B1A7858
:101CF0001B4B9B789A4205D1194B5A78184BDB78CD
:101D00009A4229D0164B9B78154AD1784FF6FF722C
:101D1000184600F001FB124B9B781946104BDB78FC
:101D20001846104A0B461B015B1A134403441B78E8
:101D3000002B08D00A4B9B78094AD1784BF64042D9
:101D4000184600F08FFA064B1B78054A51784FF47D
:101D50007842184600F0E0FA00BF80BD180100206C
:101D6000240100202C01002080B400AF0A4B1A7817
:101D70000A4B1B789A4207D1074B5A78074B5B787E
:101D80009A4201D1012300E00023DBB21846BD4690
:101D90005DF8047B704700BF24010020180100207B
:101DA00080B400AF064B9A68064B1B689A42ACBFE2
:101DB00001230023DBB21846BD465DF8047B704763
:101DC000180100201000002080B400AF0B4B1B78DE
:101DD00019460A4B5B781846094A0B461B015B1AE9
:101DE000134403441B78012B0CBF01230023DBB2F7
:101DF0001846BD465DF8047B704700BF18010020FF
:101E00002C01002080B584B004AFFFF7ADFF03467E
:101E1000002B02D0FFF768FD72E0FFF7C1FF034619
:101E2000002B02D0FFF760FD6AE0FFF7CDFF03460D
:101E3000002B65D0334B1B781946324B5B78184624
:101E4000314A0B461B015B1A1344034400221A70EB
:101E50002C4B9B6801332B4A93602A4B9B682B4A7F
:101E600082FB03129211DB17D31A002200211846BD
:101E7000FFF750FC234B9B68254A82FB031252114B
:101E8000DB17D21A234B83FB02139910D317C81AFE
:101E900003469B0003445B00D01A00220121FFF798
:101EA00039FC184B9B681B4A82FB03129210DB170C
:101EB000D31A002202211846FFF72CFC114B9A6816
:101EC000144B83FB02139910D317C81A03469B00C7
:101ED00003445B00D01A00220321FFF71BFC094BCF
:101EE0009B689AB2102302934FF6FF7301934FF44D
:101EF0007843009302234FF487715020FFF714F8C2
:101F0000BD4680BD180100202C010020D34D621079
:101F10001F85EB516766666680B500AF00F018FA62
:101F20000346002B03D0104B01221A7119E000F078
:101F30001FFA0346002B03D00B4B02221A7110E04C
:101F400000F026FA0346002B03D0074B03221A7138
:101F500007E000F02DFA0346002B02D0024B0422CA
:101F60001A7100BF80BD00BF1801002080B400AF0F
:101F70004E4B1B79012B21D14C4B1B78002B1DD0D4
:101F80004A4B1B785A1E494B5B7818464849134602
:101F90001B019B1A0B4403441B78022B0ED0434BAE
:101FA0001A78424B9A70414B5A78404BDA703F4B4B
:101FB0001B78013BDAB23D4B1A7071E03B4B1B7949
:101FC000022B21D1394B1B780D2B1DD8374B1B7899
:101FD0005A1C364B5B781846354913461B019B1A31
:101FE0000B4403441B78022B0ED0304B1A782F4B36
:101FF0009A702E4B5A782D4BDA702C4B1B7801338C
:10200000DAB22A4B1A704BE0284B1B79032B21D1F3
:10201000264B5B78002B1DD0244B1B781846234B96
:102020005B785A1E224903461B011B1A0B441344BA
:102030001B78022B0ED01D4B1A781C4B9A701B4B31
:102040005A781A4BDA70194B5B78013BDAB2174BAE
:102050005A7025E0154B1B79042B21D1134B5B786B
:102060000D2B1DD8114B1B781846104B5B785A1C52
:102070000F4903461B011B1A0B4413441B78022B08
:102080000ED00A4B1A78094B9A70084B5A78074BB6
:10209000DA70064B5B780133DAB2044B5A70FFE713
:1020A00000BFBD465DF8047B704700BF18010020EB
:1020B0002C01002080B582B000AF03F005F8034684
:1020C0005A4203F0030302F0030258BF53427B60FD
:1020D0007B68032B1AD801A252F823F0ED200008E8
:1020E000F5200008FD200008052100080A4B012208
:1020F0001A710CE0084B02221A7108E0064B032209
:102100001A7104E0044B04221A7100E000BF00BF02
:102110000837BD4680BD00BF2401002080B400AF59
:102120004E4B1B79012B21D14C4B1B78002B1DD022
:102130004A4B1B785A1E494B5B7818464849134650
:102140001B019B1A0B4403441B78022B0ED0434BFC
:102150001A78424B9A70414B5A78404BDA703F4B99
:102160001B78013BDAB23D4B1A7071E03B4B1B7997
:10217000022B21D1394B1B780D2B1DD8374B1B78E7
:102180005A1C364B5B781846354913461B019B1A7F
:102190000B4403441B78022B0ED0304B1A782F4B84
:1021A0009A702E4B5A782D4BDA702C4B1B780133DA
:1021B000DAB22A4B1A704BE0284B1B79032B21D142
:1021C000264B5B78002B1DD0244B1B781846234BE5
:1021D0005B785A1E224903461B011B1A0B44134409
:1021E0001B78022B0ED01D4B1A781C4B9A701B4B80
:1021F0005A781A4BDA70194B5B78013BDAB2174BFD
:102200005A7025E0154B1B79042B21D1134B5B78B9
:102210000D2B1DD8114B1B781846104B5B785A1CA0
:102220000F4903461B011B1A0B4413441B78022B56
:102230000ED00A4B1A78094B9A70084B5A78074B04
:10224000DA70064B5B780133DAB2044B5A70FFE761
:1022500000BFBD465DF8047B704700BF240100202D
:102260002C01002080B584B002AF0346FB710B4601
:10227000BB711346BB80BB791B0103F10800FB79DE
:102280001B0103F10801BA88012300930323FFF720
:10229000D8F800BF0837BD4680BD90B585B002AF05
:1022A0000346FB710B46BB711346BB80BB799BB2E7
:1022B0001B0198B2FB799BB21B0199B2BB79013328
:1022C0009BB21B019AB2FB7901339BB21B019CB2FA
:1022D000BB8800932346FEF733FC00BF0C37BD4696
:1022E00090BD80B584B002AF0346FB710B46BB7155
:1022F0001346BB80BB791B0103F10800FB791B016E
:1023000003F10801BA88012300930623FFF799F827
:1023100000BF0837BD4680BD80B584B002AF03461C
:10232000FB710B46BB711346BB80BB791B0103F1EC
:102330000800FB791B0103F10801BA88012300930F
:102340000623FFF77EF800BF0837BD4680BD0000BA
:1023500080B400AF054B5B88012B01D1012300E065
:1023600000231846BD465DF8047B704798000020A6
:1023700080B400AF054B5B8A012B01D1012300E043
:1023800000231846BD465DF8047B70479800002086
:1023900080B400AF054B1B89012B01D1012300E064
:1023A00000231846BD465DF8047B70479800002066
:1023B00080B400AF054B9B89012B01D1012300E0C4
:1023C00000231846BD465DF8047B70479800002046
:1023D00080B500AF024802F075F900BF80BD00BFB4
:1023E0007802002080B500AF024802F06BF900BF10
:1023F00080BD00BFC002002080B483B000AF786011
:102400007B689AB2074B1A80064B1A88064B1A80D3
:10241000064B00221A7000BF0C37BD465DF8047BE6
:10242000704700BF12020020100200200E020020A0
:1024300080B483B000AF78607B689AB2074B1A8093
:10244000064B1A88064B1A80064B00221A7000BFF2
:102450000C37BD465DF8047B704700BF18020020B2
:10246000160200201402002080B582B000AF786010
:102470007B681B68B3F1804F14D11A4B1B88002B6B
:1024800010D0184B1B88013B9AB2164B1A80154B83
:102490001B88002B06D1144B01221A70134B1A888B
:1024A000104B1A807B681B68114A934216D1114B5E
:1024B0001B88002B10D00F4B1B88013B9AB20D4B91
:1024C0001A800C4B1B88002B06D10B4B01221A7073
:1024D0000A4B1A88074B1A80FFF790F800BF08379D
:1024E000BD4680BD100200200E0200201202002016
:1024F00000080040160200201402002018020020EC
:1025000080B500AF174B184A1A60164B4FF4827211
:102510005A60144B00229A60124B0022DA60114B71
:1025200000221A610F4B00225A610E4B4FF40072C9
:102530009A610C4B0022DA610A4B00221A62094BA5
:1025400000225A62074B00229A62064B0A22DA6284
:10255000044801F07BFA0346002B01D0FFF7BEF9D7
:1025600000BF80BD1C0200200030014080B58AB051
:1025700000AF786007F1140300221A605A609A6075
:10258000DA601A617B681B68194A93422BD10023D9
:102590003B61184B5B6C174A43F480535364154BF3
:1025A0005B6C03F480533B613B690023FB60114B80
:1025B0001B6B104A43F0020313630E4B1B6B03F0BB
:1025C0000203FB60FB6838237B610223BB610023AD
:1025D000FB6103233B6205237B6207F11403194669
:1025E000054800F0FFFB00BF2837BD4680BD00BF97
:1025F00000300140003802400004024080B483B043
:1026000000AF00237B60104B5B6C0F4A43F48043A8
:1026100053640D4B5B6C03F480437B607B68002349
:102620003B60094B1B6C084A43F080531364064B14
:102630001B6C03F080533B603B6800BF0C37BD460A
:102640005DF8047B704700BF0038024080B400AFE3
:1026500000BFFDE780B400AF00BFFDE780B400AF6E
:1026600000BFFDE780B400AF00BFFDE780B400AF5E
:1026700000BFFDE780B400AF00BFBD465DF8047B3E
:10268000704780B400AF00BFBD465DF8047B704763
:1026900080B400AF00BFBD465DF8047B704780B5D5
:1026A00000AF00F049FA00BF80BD000080B500AF68
:1026B000024802F077F800BF80BD00BF780200201A
:1026C00080B500AF024802F06DF800BF80BD00BFCA
:1026D000C002002080B400AF01231846BD465DF85B
:1026E000047B704780B582B000AF7860396002F03B
:1026F000F3FD034616221A604FF0FF3318460837E1
:10270000BD4680BD80B582B000AF78604FF0FF312C
:102710007868FFF7E7FF00BFFDE780B586B000AF40
:10272000F860B9607A6000237B610AE0AFF3008053
:102730000146BB685A1CBA60CAB21A707B69013381
:102740007B617A697B689A42F0DB7B6818461837B0
:10275000BD4680BD80B586B000AFF860B9607A60D4
:1027600000237B6109E0BB685A1CBA601B781846DD
:10277000AFF300807B6901337B617A697B689A42A1
:10278000F1DB7B6818461837BD4680BD80B483B046
:1027900000AF78604FF0FF3318460C37BD465DF848
:1027A000047B704780B483B000AF786039603B68C9
:1027B0004FF400525A60002318460C37BD465DF8AE
:1027C000047B704780B483B000AF78600123184663
:1027D0000C37BD465DF8047B704780B485B000AF10
:1027E000F860B9607A60002318461437BD465DF87A
:1027F000047B704780B586B000AF7860144A154BF3
:10280000D31A7B617B693B61134B1B68002B02D1A0
:10281000114B124A1A60104B1A687B6813443A69CC
:102820009A4207D202F058FD03460C221A604FF07C
:10283000FF3309E0084B1B68FB60074B1A687B6895
:102840001344054A1360FB6818461837BD4680BD1F
:102850000000022000040000740200205804002040
:1028600080B400AF064BD3F88830054A43F47003B8
:10287000C2F8883000BFBD465DF8047B704700BFDA
:1028800000ED00E080B586B000AF07F1080300223C
:102890001A605A609A60DA603B4600221A605A60F9
:1028A0001D4B4FF080421A601B4B40F247325A607A
:1028B000194B00229A60184B6322DA60164B0022F3
:1028C0001A61154B00229A61134801F0ABFE0346D2
:1028D000002B01D0FFF702F84FF48053BB6007F1E3
:1028E000080319460C4802F065F80346002B01D096
:1028F000FEF7F4FF00233B6000237B603B46194654
:10290000054802F081FA0346002B01D0FEF7E6FFEE
:1029100000BF1837BD4680BD7802002080B586B064
:1029200000AF07F1080300221A605A609A60DA606B
:102930003B4600221A605A601D4B1E4A1A601C4B0F
:1029400040F247325A601A4B00229A60184B6322B9
:10295000DA60174B00221A61154B00229A61144865
:1029600001F060FE0346002B01D0FEF7B7FF4FF4E5
:102970008053BB6007F1080319460D4802F01AF8AE
:102980000346002B01D0FEF7A9FF00233B60002384
:102990007B603B461946064802F036FA0346002B98
:1029A00001D0FEF79BFF00BF1837BD4680BD00BFBA
:1029B000C00200200008004080B584B000AF7860FD
:1029C0007B681B68B3F1804F16D10023FB601A4B64
:1029D0001B6C194A43F001031364174B1B6C03F083
:1029E0000103FB60FB68002200211C2000F0C3F9FA
:1029F0001C2000F0DCF91AE07B681B680F4A934248
:102A000015D10023BB600C4B1B6C0B4A43F0040335
:102A10001364094B1B6C03F00403BB60BB6800220A
:102A200000211E2000F0A7F91E2000F0C0F900BF11
:102A30001037BD4680BD00BF00380240000800408E
:102A4000DFF834D00D480E490E4A002302E0D45876
:102A5000C4500433C4188C42F9D30B4A0B4C0023E6
:102A600001E013600432A242FBD3FFF7F9FE02F04B
:102A700039FCFEF793FE70470000022000000020A2
:102A80007C000020449100087C00002058040020B5
:102A9000FEE7000080B500AF0E4B1B680D4A43F403
:102AA000007313600B4B1B680A4A43F48063136086
:102AB000084B1B68074A43F480731360032000F03F
:102AC0004FF90F2000F008F8FFF798FD0023184693
:102AD00080BD00BF003C024080B582B000AF78608E
:102AE000124B1A68124B1B7819464FF47A73B3FBDA
:102AF000F1F3B2FBF3F3184600F067F90346002B3D
:102B000001D001230EE07B680F2B0AD800227968E0
:102B10004FF0FF3000F02FF9064A7B681360002366
:102B200000E0012318460837BD4680BD1400002090
:102B30001C0000201800002080B400AF064B1B785A
:102B40001A46064B1B681344044A136000BFBD4677
:102B50005DF8047B704700BF1C00002008030020C4
:102B600080B400AF034B1B681846BD465DF8047B7C
:102B7000704700BF0803002080B584B000AF7860C4
:102B8000FFF7EEFFB8607B68FB60FB68B3F1FF3FC7
:102B900005D00A4B1B781A46FB681344FB6000BF44
:102BA000FFF7DEFF0246BB68D31AFA689A42F7D8ED
:102BB00000BF00BF1037BD4680BD00BF1C00002015
:102BC00080B485B000AF78607B6803F00703FB60DA
:102BD0000C4BDB68BB60BA684FF6FF031340BB6069
:102BE000FB681A02BB68134343F0BF6343F400332E
:102BF000BB60044ABB68D36000BF1437BD465DF8B4
:102C0000047B704700ED00E080B400AF044BDB684C
:102C10001B0A03F007031846BD465DF8047B7047A6
:102C200000ED00E080B483B000AF0346FB7197F97C
:102C30000730002B0BDBFB7903F01F02074997F9E4
:102C400007305B09012000FA02F241F8232000BF9F
:102C50000C37BD465DF8047B704700BF00E100E023
:102C600080B483B000AF03463960FB7197F9073039
:102C7000002B0ADB3B68DAB20C4997F907301201E6
:102C8000D2B20B4483F800230AE03B68DAB2084969
:102C9000FB7903F00F03043B1201D2B20B441A7606
:102CA00000BF0C37BD465DF8047B704700E100E0D3
:102CB00000ED00E080B489B000AFF860B9607A60E0
:102CC000FB6803F00703FB61FB69C3F10703042BF7
:102CD00028BF0423BB61FB690433062B02D9FB69BF
:102CE000033B00E000237B614FF0FF32BB6902FA37
:102CF00003F3DA43BB681A407B699A404FF0FF3117
:102D00007B6901FA03F3D9437B680B4013431846F0
:102D10002437BD465DF8047B7047000080B582B063
:102D200000AF78607B68013BB3F1807F01D3012362
:102D30000FE00A4A7B68013B53600F214FF0FF30E0
:102D4000FFF78EFF054B00229A60044B07221A60A2
:102D5000002318460837BD4680BD00BF10E000E0E4
:102D600080B582B000AF78607868FFF729FF00BFB8
:102D70000837BD4680BD80B586B000AF0346B96058
:102D80007A60FB7300237B61FFF73EFF78617A680E
:102D9000B9687869FFF78EFF024697F90F30114640
:102DA0001846FFF75DFF00BF1837BD4680BD80B5F0
:102DB00082B000AF0346FB7197F907301846FFF762
:102DC00031FF00BF0837BD4680BD80B582B000AF7F
:102DD00078607868FFF7A2FF034618460837BD46BB
:102DE00080BD000080B489B000AF786039600023F6
:102DF0007B6100233B610023BB610023FB616BE12E
:102E00000122FB6902FA03F37B613B681B687A6964
:102E100013403B613A697B699A4240F05A813B68B2
:102E20005B6803F00303012B05D03B685B6803F08C
:102E30000303022B30D17B689B68BB61FB695B009D
:102E4000032202FA03F3DB43BA691340BB613B6818
:102E5000DA68FB695B0002FA03F3BA691343BB61EA
:102E60007B68BA699A607B685B68BB610122FB6919
:102E700002FA03F3DB43BA691340BB613B685B684A
:102E80001B0903F00102FB6902FA03F3BA69134359
:102E9000BB617B68BA695A603B685B6803F00303F7
:102EA000032B17D07B68DB68BB61FB695B000322E7
:102EB00002FA03F3DB43BA691340BB613B689A68CB
:102EC000FB695B0002FA03F3BA691343BB617B68D9
:102ED000BA69DA603B685B6803F00303022B23D115
:102EE000FB69DA087B68083253F82230BB61FB6962
:102EF00003F007039B000F2202FA03F3DB43BA69D6
:102F00001340BB613B681A69FB6903F007039B0030
:102F100002FA03F3BA691343BB61FB69DA087B6801
:102F20000832B96943F822107B681B68BB61FB69F2
:102F30005B00032202FA03F3DB43BA691340BB616F
:102F40003B685B6803F00302FB695B0002FA03F372
:102F5000BA691343BB617B68BA691A603B685B68F6
:102F600003F44033002B00F0B4800023FB60604B7F
:102F70005B6C5F4A43F4804353645D4B5B6C03F4CA
:102F80008043FB60FB685B4AFB699B08023352F895
:102F90002330BB61FB6903F003039B000F2202FA9D
:102FA00003F3DB43BA691340BB617B68524A934227
:102FB0002BD07B68514A934225D07B68504A93427C
:102FC0001FD07B684F4A934219D07B684E4A934288
:102FD00013D07B684D4A93420DD07B684C4A934294
:102FE00007D07B684B4A934201D107230EE00823A8
:102FF0000CE006230AE0052308E0042306E003238F
:1030000004E0022302E0012300E00023FA6902F059
:10301000030292009340BA691343BB613549FB69CF
:103020009B080233BA6941F823203B4B1B68BB6104
:103030003B69DB43BA691340BB613B685B6803F4DF
:103040008033002B03D0BA693B691343BB61324A1A
:10305000BB691360304B5B68BB613B69DB43BA699A
:103060001340BB613B685B6803F40033002B03D063
:10307000BA693B691343BB61274ABB695360264B5E
:103080009B68BB613B69DB43BA691340BB613B682A
:103090005B6803F48013002B03D0BA693B691343C8
:1030A000BB611D4ABB6993601B4BDB68BB613B691D
:1030B000DB43BA691340BB613B685B6803F40013F0
:1030C000002B03D0BA693B691343BB61124ABB6949
:1030D000D360FB690133FB61FB690F2B7FF690AE78
:1030E00000BF00BF2437BD465DF8047B704700BFBA
:1030F0000038024000380140000002400004024055
:1031000000080240000C024000100240001402407F
:1031100000180240001C0240003C014080B483B013
:1031200000AF78600B467B8013467B707B78002B6A
:1031300003D07A887B689A6103E07B881A047B68F5
:103140009A6100BF0C37BD465DF8047B704780B4C0
:1031500085B000AF78600B467B807B685B69FB6065
:103160007A88FB6813401A04FB68D9437B880B40BC
:103170001A437B689A6100BF1437BD465DF8047B33
:103180007047000080B586B000AF78607B68002B88
:1031900001D1012367E27B681B6803F00103002B68
:1031A00075D0884B9B6803F00C03042B0CD0854B27
:1031B0009B6803F00C03082B12D1824B5B6803F46D
:1031C0008003B3F5800F0BD17E4B1B6803F40033F3
:1031D000002B5BD07B685B68002B57D1012342E258
:1031E0007B685B68B3F5803F06D1764B1B68754AF8
:1031F00043F4803313601DE07B685B68B3F5A02F58
:103200000CD1704B1B686F4A43F4802313606D4BE5
:103210001B686C4A43F4803313600BE0694B1B68F6
:10322000684A23F480331360664B1B68654A23F4B5
:10323000802313607B685B68002B13D0FFF790FC42
:10324000386108E0FFF78CFC02463B69D31A642B17
:1032500001D9032307E25B4B1B6803F40033002B07
:10326000F0D014E0FFF77CFC386108E0FFF778FC51
:1032700002463B69D31A642B01D90323F3E1514B76
:103280001B6803F40033002BF0D100E000BF7B6823
:103290001B6803F00203002B63D04A4B9B6803F0CA
:1032A0000C03002B0BD0474B9B6803F00C03082B3F
:1032B0001CD1444B5B6803F48003002B16D1414BB7
:1032C0001B6803F00203002B05D07B68DB68012B31
:1032D00001D00123C7E13B4B1B6823F0F8027B6858
:1032E0001B69DB00374913430B603AE07B68DB68FE
:1032F000002B20D0344B01221A60FFF731FC3861DB
:1033000008E0FFF72DFC02463B69D31A022B01D9D6
:103310000323A8E12B4B1B6803F00203002BF0D022
:10332000284B1B6823F0F8027B681B69DB002549EA
:1033300013430B6015E0244B00221A60FFF710FCCA
:10334000386108E0FFF70CFC02463B69D31A022BF8
:1033500001D9032387E11B4B1B6803F00203002BF9
:10336000F0D17B681B6803F00803002B36D07B6824
:103370005B69002B16D0154B01221A60FFF7F0FB9A
:10338000386108E0FFF7ECFB02463B69D31A022BD9
:1033900001D9032367E10B4B5B6F03F00203002BA2
:1033A000F0D01BE0094B00221A60FFF7D9FB38610F
:1033B0000EE0FFF7D5FB02463B69D31A022B07D973
:1033C000032350E10038024000004742800E47428C
:1033D000884B5B6F03F00203002BEAD17B681B680C
:1033E00003F00403002B00F097800023FB75814B52
:1033F0001B6C03F08053002B0FD10023BB607D4B6F
:103400001B6C7C4A43F0805313647A4B1B6C03F0B3
:103410008053BB60BB680123FB75774B1B6803F4CB
:103420008073002B18D1744B1B68734A43F480736C
:103430001360FFF795FB386108E0FFF791FB024648
:103440003B69D31A022B01D903230CE16A4B1B6899
:1034500003F48073002BF0D07B689B68012B06D1AE
:10346000644B1B6F634A43F0010313671CE07B68E6
:103470009B68052B0CD15F4B1B6F5E4A43F0040326
:1034800013675C4B1B6F5B4A43F0010313670BE050
:10349000584B1B6F574A23F001031367554B1B6FA3
:1034A000544A23F0040313677B689B68002B15D0F4
:1034B000FFF756FB38610AE0FFF752FB02463B6913
:1034C000D31A41F28832934201D90323CBE0494B0E
:1034D0001B6F03F00203002BEED014E0FFF740FB5C
:1034E00038610AE0FFF73CFB02463B69D31A41F220
:1034F0008832934201D90323B5E03E4B1B6F03F0A2
:103500000203002BEED1FB7D012B05D1394B1B6C47
:10351000384A23F0805313647B689B69002B00F0CA
:10352000A180344B9B6803F00C03082B5CD07B68B4
:103530009B69022B41D1314B00221A60FFF710FB2F
:10354000386108E0FFF70CFB02463B69D31A022BF7
:1035500001D9032387E0274B1B6803F00073002B7E
:10356000F0D17B68DA697B681B6A1A437B685B6A07
:103570009B011A437B689B6A5B08013B1B041A434F
:103580007B68DB6A1B061B4913434B601B4B012204
:103590001A60FFF7E5FA386108E0FFF7E1FA024642
:1035A0003B69D31A022B01D903235CE0114B1B6842
:1035B00003F00073002BF0D054E0104B00221A608F
:1035C000FFF7CEFA386108E0FFF7CAFA02463B6916
:1035D000D31A022B01D9032345E0064B1B6803F0E5
:1035E0000073002BF0D13DE07B689B69012B07D174
:1035F000012338E00038024000700040600047427C
:103600001B4B5B68FB607B689B69012B28D0FB68C8
:1036100003F480027B68DB699A4221D1FB6803F0E6
:103620003F027B681B6A9A421AD1FA6847F6C07358
:1036300013407A68526A9201934211D1FB6803F4F5
:1036400040327B689B6A5B08013B1B049A4207D1AE
:10365000FB6803F070627B68DB6A1B069A4201D04C
:10366000012300E0002318461837BD4680BD00BF87
:103670000038024080B584B000AF786039607B6864
:10368000002B01D10123CCE0684B1B6803F007033A
:103690003A689A420CD9654B3A68D2B21A70634BB9
:1036A0001B6803F007033A689A4201D00123B8E08F
:1036B0007B681B6803F00203002B20D07B681B682B
:1036C00003F00403002B05D0594B9B68584A43F480
:1036D000E05393607B681B6803F00803002B05D060
:1036E000534B9B68524A43F460439360504B9B6832
:1036F00023F0F0027B689B684D4913438B607B6825
:103700001B6803F00103002B44D07B685B68012B2E
:1037100007D1474B1B6803F40033002B19D1012359
:103720007FE07B685B68022B03D07B685B68032BC0
:1037300007D13F4B1B6803F00073002B09D1012315
:103740006FE03B4B1B6803F00203002B01D1012308
:1037500067E0374B9B6823F003027B685B68344962
:1037600013438B60FFF7FCF9F8600AE0FFF7F8F904
:103770000246FB68D31A41F28832934201D90323EF
:103780004FE02B4B9B6803F00C027B685B689B004F
:103790009A42EBD1254B1B6803F007033A689A4223
:1037A0000CD2224B3A68D2B21A70204B1B6803F03D
:1037B00007033A689A4201D0012332E07B681B6814
:1037C00003F00403002B08D0194B9B6823F4E0524C
:1037D0007B68DB68164913438B607B681B6803F0CA
:1037E0000803002B09D0124B9B6823F460427B68CE
:1037F0001B69DB000E4913438B6000F021F8024681
:103800000B4B9B681B0903F00F030A49CB5C22FAA0
:1038100003F3094A1360094B1B681846FFF75CF96C
:10382000002318461037BD4680BD00BF003C024053
:1038300000380240449000081400002018000020C6
:103840002DE9B04F94B000AF00237B640023FB64EC
:1038500000233B640023BB64794B9B6803F00C039B
:10386000082B0DD0082B00F2E180002B02D0042B96
:1038700003D0DBE0734BBB64DBE0734BBB64D8E08D
:103880006F4B5B6803F03F037B646D4B5B6803F435
:103890008003002B63D06A4B5B689B090022BB63EB
:1038A000FA63BB6BC3F308033B6300237B63D7E975
:1038B0000C4522462B464FF000004FF00001590105
:1038C00041EAD261500102460B462146511A396144
:1038D000294663EB01037B614FF000024FF00003C8
:1038E000D7E904AB59468B01514643EA91635146EF
:1038F0008A015146B2EB0108594663EB01094FF0CA
:1039000000024FF000034FEAC90343EA58734FEA3D
:10391000C80290469946234618EB0303BB602B462A
:1039200049EB0303FB604FF000024FF00003D7E9BF
:10393000024529464B02214643EAD15321464A0219
:10394000104619467B6C0022BB62FA62D7E90A2353
:10395000FCF78EFC02460B461346FB6458E0384BDE
:103960005B689B09002218461146C0F308033B62BE
:1039700000237B62D7E9088942464B464FF000009E
:103980004FF00001590141EAD261500102460B4655
:103990004146B2EB010A494663EB010B4FF00002CE
:1039A0004FF000034FEA8B1343EA9A634FEA8A12FF
:1039B000B2EB0A0463EB0B054FF000024FF000037B
:1039C000EB0043EA5473E20014461D464346E318F5
:1039D0003B604B4645EB03037B604FF000024FF02A
:1039E0000003D7E9004529468B02214643EA91535B
:1039F00021468A02104619467B6C0022BB61FA619F
:103A0000D7E90623FCF734FC02460B461346FB6459
:103A10000B4B5B681B0C03F0030301335B003B643F
:103A2000FA6C3B6CB2FBF3F3BB6402E0054BBB6486
:103A300000BFBB6C18465037BD46BDE8B08F00BF15
:103A4000003802400024F40000127A0080B582B0F1
:103A500000AF78607B68002B01D101237BE07B689D
:103A60005B6A002B08D17B685B68B3F5827F09D065
:103A70007B680022DA6105E07B6800221A617B68BE
:103A800000225A617B6800229A627B6893F8513069
:103A9000DBB2002B06D17B68002283F850207868C7
:103AA000FEF764FD7B68022283F851207B681B6867
:103AB0001A687B681B6822F040021A607B685B68AA
:103AC00003F482727B689B6803F404431A437B68A7
:103AD000DB6803F400631A437B681B6903F002038D
:103AE0001A437B685B6903F001031A437B689B6997
:103AF00003F400731A437B68DB6903F038031A434D
:103B00007B681B6A03F0800342EA03017B689B6ABF
:103B100003F400527B681B680A431A607B689B6948
:103B20001B0C03F004017B685B6A03F010027B68E6
:103B30001B680A435A607B681B68DA697B681B68EC
:103B400022F40062DA617B6800225A657B680122F8
:103B500083F85120002318460837BD4680BD80B544
:103B600088B000AFF860B9603B601346FB8000236B
:103B7000FB77FB6893F85030012B01D1022326E13B
:103B8000FB68012283F85020FEF7EAFFB861FB884A
:103B9000FB82FB6893F85130DBB2012B02D0022389
:103BA000FB770BE1BB68002B02D0FB88002B02D116
:103BB0000123FB7702E1FB68032283F85120FB68B5
:103BC00000225A65FB68BA681A63FB68FA889A860D
:103BD000FB68FA88DA86FB6800229A63FB68002299
:103BE0009A87FB680022DA87FB6800225A64FB6828
:103BF00000221A64FB689B68B3F5004F0FD1FB6885
:103C00001B681A68FB681B6822F040021A60FB6898
:103C10001B681A68FB681B6842F480421A60FB68E4
:103C20001B681B6803F04003402B07D0FB681B6830
:103C30001A68FB681B6842F040021A60FB68DB6888
:103C4000B3F5006F4BD1FB685B68002B02D0FB8A99
:103C5000012B3ED1FB681B6B1A88FB681B68DA607E
:103C6000FB681B6B9A1CFB681A63FB68DB8E9BB2BC
:103C7000013B9AB2FB68DA862BE0FB681B689B6805
:103C800003F00203022B12D1FB681B6B1A88FB683E
:103C90001B68DA60FB681B6B9A1CFB681A63FB6885
:103CA000DB8E9BB2013B9AB2FB68DA8611E0FEF72D
:103CB00057FF0246BB69D31A3A689A4203D83B6859
:103CC000B3F1FF3F02D13B68002B02D10323FB7706
:103CD00074E0FB68DB8E9BB2002BCED14CE0FB681E
:103CE0005B68002B02D0FB8A012B40D1FB681A6B6A
:103CF000FB681B680C3312781A70FB681B6B5A1C2C
:103D0000FB681A63FB68DB8E9BB2013B9AB2FB68CF
:103D1000DA862CE0FB681B689B6803F00203022B29
:103D200013D1FB681A6BFB681B680C3312781A708E
:103D3000FB681B6B5A1CFB681A63FB68DB8E9BB22B
:103D4000013B9AB2FB68DA8611E0FEF709FF0246F2
:103D5000BB69D31A3A689A4203D83B68B3F1FF3F74
:103D600002D13B68002B02D10323FB7726E0FB68DE
:103D7000DB8E9BB2002BCDD1BA693968F86800F0B0
:103D8000CBFB0346002B02D0FB6820225A65FB6860
:103D90009B68002B0AD100233B61FB681B68DB6832
:103DA0003B61FB681B689B683B613B69FB685B6D23
:103DB000002B02D00123FB7700E000BFFB6801224B
:103DC00083F85120FB68002283F85020FB7F1846BF
:103DD0002037BD4680BD80B588B002AFF860B960BD
:103DE0003B601346FB800023FB75FB685B68B3F503
:103DF000827F12D1FB689B68002B0ED1FB680422E6
:103E000083F85120FA883B6800931346BA68B96872
:103E1000F86800F0F1F80346EAE0FB6893F85030E8
:103E2000012B01D10223E3E0FB68012283F850203B
:103E3000FEF796FE3861FB6893F85130DBB2012B38
:103E400002D00223FB75CAE0BB68002B02D0FB88BE
:103E5000002B02D10123FB75C1E0FB68042283F82B
:103E60005120FB6800225A65FB68BA689A63FB68B8
:103E7000FA889A87FB68FA88DA87FB6800221A6357
:103E8000FB6800229A86FB680022DA86FB68002223
:103E90001A64FB6800225A64FB689B68B3F5004F04
:103EA0000FD1FB681B681A68FB681B6822F0400290
:103EB0001A60FB681B681A68FB681B6822F4804262
:103EC0001A60FB681B681B6803F04003402B07D097
:103ED000FB681B681A68FB681B6842F040021A60A6
:103EE000FB68DB68002B62D12EE0FB681B689B68D7
:103EF00003F00103012B15D1FB681B6803F10C02D1
:103F0000FB689B6B1278D2B21A70FB689B6B5A1CD1
:103F1000FB689A63FB68DB8F9BB2013B9AB2FB683C
:103F2000DA8711E0FEF71CFE02463B69D31A3A68B5
:103F30009A4203D83B68B3F1FF3F02D13B68002BA4
:103F400002D10323FB754AE0FB68DB8F9BB2002B99
:103F5000CBD131E0FB681B689B6803F00103012BA8
:103F600013D1FB681B68DA68FB689B6B92B21A80FE
:103F7000FB689B6B9A1CFB689A63FB68DB8F9BB2A8
:103F8000013B9AB2FB68DA8711E0FEF7E9FD0246D1
:103F90003B69D31A3A689A4203D83B68B3F1FF3FB2
:103FA00002D13B68002B02D10323FB7517E0FB68AD
:103FB000DB8F9BB2002BCDD13A693968F86800F0ED
:103FC00045FA0346002B02D0FB6820225A65FB68A5
:103FD0005B6D002B02D00123FB7500E000BFFB6886
:103FE000012283F85120FB68002283F85020FB7DDA
:103FF00018461837BD4680BD80B58CB000AFF8605C
:10400000B9607A607B800123FB62002387F82B3044
:10401000FB6893F85030012B01D102238AE1FB6841
:10402000012283F85020FEF79BFD7862FB6893F82D
:10403000513087F82330FB685B68FB617B887B83AA
:1040400097F82330012B0FD0FB69B3F5827F07D19E
:10405000FB689B68002B03D197F82330042B03D017
:10406000022387F82B305BE1BB68002B05D07B680F
:10407000002B02D07B88002B03D1012387F82B3043
:104080004EE1FB6893F85130DBB2042B03D0FB68A0
:10409000052283F85120FB6800225A65FB687A6884
:1040A0009A63FB687A88DA87FB687A889A87FB6864
:1040B000BA681A63FB687A88DA86FB687A889A8617
:1040C000FB6800221A64FB6800225A64FB681B68C4
:1040D0001B6803F04003402B07D0FB681B681A687D
:1040E000FB681B6842F040021A60FB68DB68B3F5AE
:1040F000006F78D1FB685B68002B02D07B8B012BB3
:1041000066D1FB681B6B1A88FB681B68DA60FB686A
:104110001B6B9A1CFB681A63FB68DB8E9BB2013B2E
:104120009AB2FB68DA8653E0FB681B689B6803F071
:104130000203022B1BD1FB68DB8E9BB2002B16D037
:10414000FB6A012B13D1FB681B6B1A88FB681B6889
:10415000DA60FB681B6B9A1CFB681A63FB68DB8EDA
:104160009BB2013B9AB2FB68DA860023FB62FB68D4
:104170001B689B6803F00103012B19D1FB68DB8FDF
:104180009BB2002B14D0FB681B68DA68FB689B6B42
:1041900092B21A80FB689B6B9A1CFB689A63FB685F
:1041A000DB8F9BB2013B9AB2FB68DA870123FB628B
:1041B000FEF7D6FC02467B6AD31ABA6B9A4207D83E
:1041C000BB6BB3F1FF3F03D0032387F82B30A7E08D
:1041D000FB68DB8E9BB2002BA6D1FB68DB8F9BB20A
:1041E000002BA1D17CE0FB685B68002B02D07B8BAD
:1041F000012B6BD1FB681A6BFB681B680C331278C0
:104200001A70FB681B6B5A1CFB681A63FB68DB8E19
:104210009BB2013B9AB2FB68DA8657E0FB681B68E9
:104220009B6803F00203022B1CD1FB68DB8E9BB260
:10423000002B17D0FB6A012B14D1FB681A6BFB68AB
:104240001B680C3312781A70FB681B6B5A1CFB68D6
:104250001A63FB68DB8E9BB2013B9AB2FB68DA867D
:104260000023FB62FB681B689B6803F00103012BC2
:1042700019D1FB68DB8F9BB2002B14D0FB681B6845
:10428000DA68FB689B6BD2B21A70FB689B6B5A1C96
:10429000FB689A63FB68DB8F9BB2013B9AB2FB68B9
:1042A000DA870123FB62FEF75BFC02467B6AD31AC6
:1042B000BA6B9A4203D8BB6BB3F1FF3F02D1BB6B21
:1042C000002B03D1032387F82B3029E0FB68DB8E1A
:1042D0009BB2002BA2D1FB68DB8F9BB2002B9DD140
:1042E0007A6AB96BF86800F017F90346002B06D01C
:1042F000012387F82B30FB6820225A6510E0FB6809
:104300009B68002B0BD100237B61FB681B68DB687B
:104310007B61FB681B689B687B617B6900E000BF79
:10432000FB68012283F85120FB68002283F85020AB
:1043300097F82B3018463037BD4680BD80B588B021
:1043400000AFF860B9603B601346FB71FEF708FCF4
:104350000246BB6A9B1A3A681344FB61FEF700FCF5
:10436000B861394B1B685B011B0DFA6902FB03F353
:104370007B6154E03B68B3F1FF3F50D0FEF7F0FBA8
:104380000246BB69D31AFA699A4202D9FB69002B2B
:104390003DD1FB681B685A68FB681B6822F0E0028D
:1043A0005A60FB685B68B3F5827F11D1FB689B683C
:1043B000B3F5004F04D0FB689B68B3F5806F07D15D
:1043C000FB681B681A68FB681B6822F040021A60D1
:1043D000FB689B6AB3F5005F0FD1FB681B681A6826
:1043E000FB681B6822F400521A60FB681B681A689D
:1043F000FB681B6842F400521A60FB68012283F8D4
:104400005120FB68002283F85020032317E07B69CA
:10441000002B01D10023FB617B69013B7B61FB68C1
:104420001B689A68BB681340BA689A420CBF0123A4
:104430000023DBB21A46FB799A429BD1002318462F
:104440002037BD4680BD00BF1400002080B586B077
:1044500002AFF860B9607A60FB685B68B3F5827F91
:1044600011D1FB689B68B3F5004F04D0FB689B68D3
:10447000B3F5806F07D1FB681B681A68FB681B687F
:1044800022F040021A60FB685B68B3F5827F2AD194
:10449000FB689B68B3F5806F12D07B680093BB68A4
:1044A00000228021F868FFF749FF0346002B2DD03A
:1044B000FB685B6D43F02002FB685A65032326E02E
:1044C0007B680093BB6800220121F868FFF736FF84
:1044D0000346002B1AD0FB685B6D43F02002FB689B
:1044E0005A65032313E07B680093BB680022012117
:1044F000F868FFF723FF0346002B07D0FB685B6DCE
:1045000043F02002FB685A65032300E000231846AD
:104510001037BD4680BD000080B588B002AFF8609E
:10452000B9607A601B4B1B681B4AA2FB03235B0D1F
:104530004FF47A7202FB03F37B61FB685B68B3F5AF
:10454000827F12D17B680093BB6800228021F868CB
:10455000FFF7F4FE0346002B16D0FB685B6D43F0BB
:104560002002FB685A6503230FE07B69002B0AD009
:104570007B69013B7B61FB681B689B6803F08003E0
:10458000802BF2D000E000BF002318461837BD464C
:1045900080BD00BF14000020819F5E1680B584B0EE
:1045A00000AFF860B9607A60FB68002B01D101238D
:1045B00034E0FB6893F84930DBB2002B06D1FB688E
:1045C000002283F84820F868FCF708F9FB681A68AD
:1045D000FB6808331946104600F0A6FCFB68186813
:1045E000FB689B681A46B96800F0F0FCFB685868E5
:1045F000FB689A68FB681B6B796800F025FDFB6817
:104600001B68FA68926853F82210FB681B68FA6806
:10461000926841F0010143F8221000231846103738
:10462000BD4680BD80B582B000AF78607B68002B4E
:1046300001D1012341E07B6893F83D30DBB2002BD0
:1046400006D17B68002283F83C207868FEF7B4F935
:104650007B68022283F83D207B681A687B680433FC
:104660001946104600F096FA7B68012283F846202E
:104670007B68012283F83E207B68012283F83F207B
:104680007B68012283F840207B68012283F8412067
:104690007B68012283F842207B68012283F8432053
:1046A0007B68012283F844207B68012283F845203F
:1046B0007B68012283F83D20002318460837BD4659
:1046C00080BD000080B485B000AF78607B6893F84F
:1046D0003D30DBB2012B01D001234EE07B6802228A
:1046E00083F83D207B681B68DA687B681B6842F0B2
:1046F0000102DA607B681B68234A934222D07B6800
:104700001B68B3F1804F1DD07B681B681F4A934222
:1047100018D07B681B681E4A934213D07B681B68C5
:104720001C4A93420ED07B681B681B4A934209D0F7
:104730007B681B68194A934204D07B681B68184A3F
:10474000934211D17B681B689B6803F00703FB60F1
:10475000FB68062B10D07B681B681A687B681B6897
:1047600042F001021A6007E07B681B681A687B68E8
:104770001B6842F001021A60002318461437BD4638
:104780005DF8047B704700BF00000140000400405A
:1047900000080040000C00400004014000400140BF
:1047A0000018004080B582B000AF78607B681B685D
:1047B0001B6903F00203022B22D17B681B68DB68B4
:1047C00003F00203022B1BD17B681B686FF002020F
:1047D0001A617B6801221A777B681B689B6903F06A
:1047E0000303002B03D0786800F0B5F905E0786882
:1047F00000F0A7F9786800F0B8F97B6800221A7712
:104800007B681B681B6903F00403042B22D17B68BF
:104810001B68DB6803F00403042B1BD17B681B6857
:104820006FF004021A617B6802221A777B681B68AA
:104830009B6903F44073002B03D0786800F08BF978
:1048400005E0786800F07DF9786800F08EF97B6803
:1048500000221A777B681B681B6903F00803082B8A
:1048600022D17B681B68DB6803F00803082B1BD18F
:104870007B681B686FF008021A617B6804221A7754
:104880007B681B68DB6903F00303002B03D07868A7
:1048900000F061F905E0786800F053F9786800F0FD
:1048A00064F97B6800221A777B681B681B6903F038
:1048B0001003102B22D17B681B68DB6803F0100308
:1048C000102B1BD17B681B686FF010021A617B688C
:1048D00008221A777B681B68DB6903F44073002B9E
:1048E00003D0786800F037F905E0786800F029F91E
:1048F000786800F03AF97B6800221A777B681B68B9
:104900001B6903F00103012B0ED17B681B68DB6878
:1049100003F00103012B07D17B681B686FF00102D4
:104920001A617868FDF7A0FD7B681B681B6903F0BE
:104930008003802B0ED17B681B68DB6803F080034B
:10494000802B07D17B681B686FF080021A61786842
:1049500000F0E0FA7B681B681B6903F04003402B02
:104960000ED17B681B68DB6803F04003402B07D146
:104970007B681B686FF040021A61786800F0FFF8EE
:104980007B681B681B6903F02003202B0ED17B681A
:104990001B68DB6803F02003202B07D17B681B68B2
:1049A0006FF020021A61786800F0AAFA00BF083799
:1049B000BD4680BD80B584B000AF7860396000230B
:1049C000FB737B6893F83C30012B01D10223B4E0E8
:1049D0007B68012283F83C207B68022283F83D201B
:1049E0007B681B689B68BB60BB6823F07703BB6078
:1049F000BB6823F47F43BB607B681B68BA689A601E
:104A00003B681B68B3F5005F3ED0B3F5005F00F272
:104A10008780B3F5805F00F08680B3F5805F7FD834
:104A2000702B1AD0702B7BD8602B50D0602B77D88E
:104A3000502B3CD0502B73D8402B58D0402B6FD8E4
:104A4000302B64D0302B6BD8202B60D0202B67D834
:104A5000002B5CD0102B5AD062E07B6818683B6852
:104A600099683B685A683B68DB6800F0ADF97B6881
:104A70001B689B68BB60BB6843F07703BB607B68C7
:104A80001B68BA689A604FE07B6818683B68996851
:104A90003B685A683B68DB6800F096F97B681B68E6
:104AA0009A687B681B6842F480429A603CE07B68AD
:104AB00018683B6859683B68DB681A4600F00AF9D9
:104AC0007B681B685021184600F063F92CE07B6876
:104AD00018683B6859683B68DB681A4600F029F99A
:104AE0007B681B686021184600F053F91CE07B6866
:104AF00018683B6859683B68DB681A4600F0EAF8BA
:104B00007B681B684021184600F043F90CE07B6885
:104B10001A683B681B681946104600F03AF903E032
:104B20000123FB7300E000BF7B68012283F83D2076
:104B30007B68002283F83C20FB7B18461037BD467B
:104B400080BD80B483B000AF786000BF0C37BD4635
:104B50005DF8047B704780B483B000AF786000BF1D
:104B60000C37BD465DF8047B704780B483B000AF5E
:104B7000786000BF0C37BD465DF8047B704780B499
:104B800083B000AF786000BF0C37BD465DF8047B92
:104B90007047000080B485B000AF786039607B68F2
:104BA0001B68FB607B68404A934213D07B68B3F17B
:104BB000804F0FD07B683D4A93420BD07B683C4AC4
:104BC000934207D07B683B4A934203D07B683A4AC2
:104BD000934208D1FB6823F07003FB603B685B687D
:104BE000FA681343FB607B682F4A93422BD07B68A3
:104BF000B3F1804F27D07B682C4A934223D07B6847
:104C00002B4A93421FD07B682A4A93421BD07B6871
:104C1000294A934217D07B68284A934213D07B6875
:104C2000274A93420FD07B68264A93420BD07B6879
:104C3000254A934207D07B68244A934203D07B687D
:104C4000234A934208D1FB6823F44073FB603B681E
:104C5000DB68FA681343FB60FB6823F080023B6863
:104C60005B691343FB607B68FA681A603B689A686B
:104C70007B68DA623B681A687B689A627B680A4ADA
:104C8000934203D07B680C4A934203D13B681A6974
:104C90007B681A637B6801225A6100BF1437BD46E6
:104CA0005DF8047B704700BF000001400004004035
:104CB00000080040000C004000040140004001409A
:104CC000004401400048014000180040001C004022
:104CD0000020004080B487B000AFF860B9607A600F
:104CE000FB681B6A7B61FB681B6A23F00102FB689F
:104CF0001A62FB689B693B613B6923F0F0033B61EF
:104D00007B681B013A6913433B617B6923F00A030B
:104D10007B617A69BB6813437B61FB683A699A617E
:104D2000FB687A691A6200BF1C37BD465DF8047BD8
:104D3000704780B487B000AFF860B9607A60FB68F4
:104D40001B6A23F01002FB681A62FB689B697B6197
:104D5000FB681B6A3B617B6923F470437B617B6862
:104D60001B037A6913437B613B6923F0A0033B611A
:104D7000BB681B013A6913433B61FB687A699A611E
:104D8000FB683A691A6200BF1C37BD465DF8047BB8
:104D9000704780B485B000AF786039607B689B68ED
:104DA000FB60FB6823F07003FB603A68FB68134309
:104DB00043F00703FB607B68FA689A6000BF143712
:104DC000BD465DF8047B704780B487B000AFF860E3
:104DD000B9607A603B60FB689B687B617B6923F408
:104DE0007F437B613B681A027B681A43BB681343AD
:104DF0007A6913437B61FB687A699A6000BF1C374C
:104E0000BD465DF8047B704780B485B000AF786024
:104E100039607B6893F83C30012B01D102235AE0C2
:104E20007B68012283F83C207B68022283F83D20C6
:104E30007B681B685B68FB607B681B689B68BB606A
:104E4000FB6823F07003FB603B681B68FA68134340
:104E5000FB607B681B68FA685A607B681B68214AA4
:104E6000934222D07B681B68B3F1804F1DD07B68D2
:104E70001B681D4A934218D07B681B681B4A9342EB
:104E800013D07B681B681A4A93420ED07B681B685C
:104E9000184A934209D07B681B68174A934204D092
:104EA0007B681B68154A93420CD1BB6823F08003D2
:104EB000BB603B685B68BA681343BB607B681B6878
:104EC000BA689A607B68012283F83D207B680022E3
:104ED00083F83C20002318461437BD465DF8047B58
:104EE000704700BF0000014000040040000800407F
:104EF000000C004000040140004001400018004048
:104F000080B483B000AF786000BF0C37BD465DF859
:104F1000047B704780B483B000AF786000BF0C376B
:104F2000BD465DF8047B704780B485B000AF786003
:104F300039600023FB603B681A687B6853F82230B5
:104F4000FB60FA68204B1340FB603B685A683B6883
:104F50009B681A433B68DB681A433B681B691A432A
:104F60003B685B691A433B689B691A433B68DB6992
:104F70001A433B681B6A1A433B685B6A1A433B68E7
:104F80009B6A1A433B68DB6A1A433B68DB6B1A4334
:104F90003B681B6B1343FA681343FB603B689B68D9
:104FA000082B03D1FB6843F04003FB603B681A68A1
:104FB0007B68F96843F82210002318461437BD4671
:104FC0005DF8047B704700BF8000F0FF80B487B0BD
:104FD00000AFF860B9607A6000237B617B685A1C7F
:104FE000FB6853F822307B617B6903F040437B61AF
:104FF000BB681A68BB685B681B011A43BB689B6887
:105000001B021A43BB68DB681B041A43BB681B699D
:10501000013B1B051A43BB685B69023B1B061A4335
:10502000BB689B6913437A6913437B617B685A1C95
:10503000FB68796943F82210002318461C37BD46E7
:105040005DF8047B7047000080B487B000AFF86063
:10505000B9607A603B6000237B613B68B3F5804FA9
:1050600022D1FB687A6853F822307B617A69154B4C
:1050700013407B61BB681A68BB685B681B011A43FD
:10508000BB689B681B021A43BB68DB681B041A439E
:10509000BB689B6913437A6913437B61FB687A6839
:1050A000796943F8221005E0FB687A686FF0704177
:1050B00043F82210002318461C37BD465DF8047BD8
:1050C000704700BF0000F0CF164B10B51C68236B73
:1050D000B3B9182000F04CF90246206320B9124BF6
:1050E0001248522100F026F91149124BC0E9001371
:1050F000114B83600B23838100210120C2E904014D
:10510000216B0E480B694C690D4A584302FB0400A1
:10511000A3FB0232013340EB0200C1E9043020F06E
:10512000004010BD2C000020549000086B90000837
:105130000E33CDAB34126DE6ECDE05002DF4515884
:105140002D7F954C002310B50446C0E90033C0E91B
:105150000433836081814366C281836119460822DA
:105160005C3000F0B1F80D4B63620D4BA3620D4B48
:10517000E3620D4B23630D4B24629C4206D003F186
:105180006802944202D0D0339C4205D104F1580009
:10519000BDE8104000F0CAB810BD00BF3556000889
:1051A000575600088F560008B35600080C0300201D
:1051B000024A0349034800F069B800BF20000020FC
:1051C000CD5500083000002041680C4B994210B5C5
:1051D000044601D000F0FAF9A168094B994202D0C7
:1051E000204600F0F3F9E168064B994204D02046CE
:1051F000BDE8104000F0EAB910BD00BF0C0300206C
:1052000074030020DC03002010B50B4B0B4C0C4A40
:105210001A60204600220421FFF794FF04F1680081
:1052200001220921FFF78EFF04F1D0000222BDE820
:1052300010401221FFF786BF440400200C03002019
:10524000B1510008014800F072B800BF49040020C5
:10525000014800F06DB800BF4904002010B50446B5
:10526000FFF7F0FF236A1BB1BDE81040FFF7F0BF66
:10527000044B2362044B1B68002BF5D1FFF7C4FFDE
:10528000F2E700BFC9510008440400202DE9F843AB
:105290000746884614460026D4E90195B9F101096C
:1052A00005D52468002CF7D13046BDE8F883AB89DA
:1052B000012B07D9B5F90E30013303D02946384602
:1052C000C04706436835E9E702440346934200D1EC
:1052D000704703F8011BF9E7014B1868704700BFDE
:1052E0002C00002070B50D4D0D4C641BA410002641
:1052F000A64209D10B4D0C4C00F0C6FE641BA41055
:105300000026A64205D170BD55F8043B98470136EA
:10531000EEE755F8043B98470136F2E73C91000868
:105320003C9100083C91000840910008704770478C
:10533000704700001FB514461A46094B1B68054606
:10534000D86854B9074B1C46CDE9013400912B466F
:10535000054900F0B3F900F019FA044BF4E700BF77
:105360002C000020FE900008D0900008C390000898
:10537000024B0146186800F025B800BF2C00002041
:1053800070B50F4E0C463168054611B900F0DCF9D6
:1053900030602146284600F0D7F9431C03D14FF076
:1053A000FF34204670BDC41C24F00304A042F8D092
:1053B000211A284600F0C8F90130F2D1EFE700BF0A
:1053C0004C0400202DE9F843CD1C25F003050835D9
:1053D0000C2D38BF0C25002D064601DBA94204D94F
:1053E0000C2333600020BDE8F883DFF8D48000F0A0
:1053F00015F9D8F800301C4644BB29463046FFF763
:10540000BFFF431C044658D1D8F800402746002F60
:1054100043D1002C4BD023683946304604EB0309B6
:1054200000F092F9814542D121686D1A2946304633
:10543000FFF7A6FF01303AD023682B442360D8F849
:1054400000305A6862BBC8F800700FE02268521B37
:1054500020D40B2A17D96119A342256018BF5960BF
:10546000636808BFC8F8001062514B60304600F016
:10547000DBF804F10B00231D20F00700C21A1CBF4B
:105480001B1AA350AFE76268A3420CBFC8F8002004
:105490005A60EBE723466468AEE73C467F68B6E7B0
:1054A0001A465B68A342FBD100235360DEE70C235E
:1054B0003360304600F0B8F894E70560D6E700BFE7
:1054C00050040020B1F90C202DE9F04116070546E3
:1054D0000C4654D44B68002B02DC0B6C002B48DDCF
:1054E000E66A002E45D0002312F480522F68216A0C
:1054F0002B6030D0626DA389590705D56368D21A35
:10550000636B0BB1236CD21A0023E66A216A28462A
:10551000B047431CA38906D129681D292BD82A4AE4
:105520000A41D60727D400226260D904226922608A
:1055300004D5421C01D12B6803B96065616B2F60F3
:10554000B9B104F14403994202D0284600F026F98B
:10555000002363630DE001232846B0470246501C38
:10556000C9D12B68002BC6D01D2B01D0162B1ED104
:105570002F60002022E043F040031BB21BE00F69C4
:10558000002FF6D093070E6808BF4B690F6018BF55
:105590000023A6EB07088B60B8F1000FE9DD216A54
:1055A000A66A43463A462846B047002808DCB4F9C4
:1055B0000C3043F04003A3814FF0FF30BDE8F08191
:1055C0000744A8EB0008E7E7FEFFBFDF38B50B692B
:1055D00005460C4613B90025284638BD18B1036AA4
:1055E0000BB9FFF73BFEB4F90C30002BF3D0626E21
:1055F000D00704D4990502D4A06DFFF798FE284681
:105600002146FFF75FFF636EDA070546E4D4A389FE
:105610009B05E1D4A06DFFF78BFEDDE70148FFF7A6
:1056200086BE00BF480400200148FFF781BE00BFCE
:105630004804002010B50C46B1F90E1000F072F8C5
:105640000028ABBF636DA3891B1823F48053ACBF44
:105650006365A38110BD2DE9F0411F468B89DB05F1
:1056600005460C46164605D5B1F90E100223002258
:1056700000F046F8A389B4F90E1023F48053A381F7
:1056800032463B462846BDE8F04100F06DB810B503
:105690000C46B1F90E1000F033F8431CA38915BF76
:1056A000606523F4805343F48053A38118BFA38122
:1056B00010BDB1F90E1000F013B800000EB403B520
:1056C000014603AB054853F8042B0068019300F032
:1056D000D9F802B05DF804EB03B070472C0000204D
:1056E00038B5064D0023044608462B60FDF74EF8FA
:1056F000431C02D12B6803B1236038BD5404002041
:1057000038B5074D04460846114600222A601A465D
:10571000FDF763F8431C02D12B6803B1236038BD49
:105720005404002038B5074D0446084611460022AF
:105730002A601A46FCF7F1FF431C02D12B6803B123
:10574000236038BD5404002038B5064D00230446BC
:1057500008462B60FDF74EF8431C02D12B6803B1BD
:10576000236038BD5404002038B5074D0446084670
:10577000114600222A601A46FCF7ECFF431C02D1B6
:105780002B6803B1236038BD5404002008B50620FF
:1057900000F05EFC0120FCF7B5FF000038B50546BF
:1057A000002941D051F8043C0C1F002BB8BFE4186D
:1057B000FFF734FF1D4A136833B96360146028464D
:1057C000BDE83840FFF730BFA34208D92068211850
:1057D0008B4201BF19685B6809182160EDE71A4622
:1057E0005B680BB1A342FAD911685018A0420BD1E3
:1057F00020680144501883421160E0D118685B684A
:10580000536008441060DAE702D90C232B60D6E716
:10581000206821188B4204BF19685B68636004BF6D
:10582000091821605460CAE738BD00BF5004002049
:105830009368013B002B10B4936008DA9469A3428B
:1058400001DB0A2903D15DF8044B00F0C1BA1368EB
:10585000581C1060197008465DF8044B7047F8B585
:1058600006460F461446D518AC4201D1002007E089
:1058700014F8011B3A463046FFF7DAFF431CF3D118
:10588000F8BD00002DE9F04F0D469DB01446984636
:10589000064618B1036A0BB9FFF7E0FC6B6ED90737
:1058A00005D4AB899A0502D4A86DFFF740FDAB89FA
:1058B0001B0701D52B699BB92946304600F0C6FA73
:1058C00070B16B6EDC0704D54FF0FF301DB0BDE842
:1058D000F08FAB899805F7D4A86DFFF729FDF3E7A2
:1058E0000023099320238DF82930CDF80C80302334
:1058F000DFF8AC818DF82A304FF0010923469A4633
:1059000013F8012B0AB1252AF9D1BAEB040B0BD0FD
:105910005B46224629463046FFF7A1FF013000F0E2
:10592000A780099A5A4409929AF80030002B00F097
:105930009F8000234FF0FF32CDE905230AF1010AD1
:10594000049307938DF853301A935446052214F8A4
:10595000011B5348FAF73CFC049AD8B9D10644BF5E
:1059600020238DF85330130744BF2B238DF8533079
:105970009AF800302A2B15D0079A544600204FF091
:105980000A0C214611F8013B303B092B4BD9B0B131
:10599000079214E0A0EB080309FA03F313430493FE
:1059A000A246D2E7039B191D1B680391002BBBBFC6
:1059B0005B4242F0020207930793B8BF0492237838
:1059C0002E2B0AD163782A2B32D1039B1A1D1B6818
:1059D000039243EAE37302340593DFF8D4A02178FD
:1059E00003225046FAF7F4FB38B1049BA0EB0A00FF
:1059F0004022824013430134049314F8011B2948C8
:105A00008DF828100622FAF7E3FB00283FD0264B3A
:105A10001BBB039B073323F0070308330393099B46
:105A20003B4409936AE70CFB02320C460120A8E7CD
:105A300000230134059319464FF00A0C204610F854
:105A4000012B303A092A03D9002BC6D00591C4E7AF
:105A50000CFB012104460123F0E703AB00932A4627
:105A6000124B04A93046AFF300800746781CD6D10C
:105A70006B6ED90705D4AB899A0502D4A86DFFF7E0
:105A800057FCAB895B063FF51FAF09981EE703ABD8
:105A900000932A46054B04A9304600F079F8E4E764
:105AA000FF90000809910008000000005F580008FE
:105AB000059100082DE9F047164698468A680B695B
:105AC000DDF820909342B8BF1346336091F843202D
:105AD00007460C460AB1013333602368990642BF7A
